:070B6F00C2A1C2A2C2A02234
:040B4E007F0A7E009C
:100B5200EF1FAC0670011E4C60060000000080F022
:010B62002270
:040B07007F3C7E00B1
:100B0B00E4FDFCC3ED9FEC9E5015E4FBFA0BBB0020
:0F0B1B00010ABA04F8BBFBF50DBD00010C80E424
:010B2A0022A8
:070B76005389F043890122BD
:100B2B00EF14600F14601424027017D290120B4E46
:100B3B00C29022D292120B4EC29222D294120B4E20
:030B4B00C294222F
:02095000AD07F1
:10095200120B2BED146065147003020A132402605B
:1009620003020A6D750C75750D30209110E50D4569
:100972000C600AE50D150D70F1150C80EDE50D45C5
:100982000C7003FEFF22E4F58CF58AC28DD28C75C1
:100992000CEA750D60309116E50D450C6010308D36
:1009A20003020A50E50D150D70EB150C80E7E50DFD
:1009B200450C7003020A66C28C020A6D750C7575CD
:1009C2000D30209310E50D450C600AE50D150D70F4
:1009D200F1150C80EDE50D450C7003FEFF22E4F5E8
:1009E2008CF58AC28DD28C750CEA750D6030931528
:1009F200E50D450C600F308D028053E50D150D702D
:100A0200EC150C80E8E50D450C70028057C28C8015
:100A12005A750C75750D30209510E50D450C600A60
:100A2200E50D150D70F1150C80EDE50D450C70030B
:100A3200FEFF22E4F58CF58AC28DD28C750CEA7524
:100A42000D60309519E50D450C6013308D06C28C92
:100A5200E4FEFF22E50D150D70E8150C80E4E50DAE
:100A6200450C7005C28CFEFF22C28CAF8CEFFEAD2E
:100A72008AEDFF7C047D3D120923E47BE87A03F9C9
:0B0A8200F81208917C007D3A12080079
:010A8D002246
:100A8E00120B76E4FF1209508E088F09120B077FA6
:100A9E00011209508E0A8F0B120B077F021209509A
:100AAE008F828E83120B07120B6FD3E5099400E52C
:100ABE00089400400CE5099414E50894005002D205
:100ACE00A1D3E50B9400E50A9400400CE50B9414B9
:100ADE00E50A94005002D2A2D3E5829400E58394F5
:100AEE0000400CE5829414E58394005002D2A07F5E
:090AFE00C87E00120B0B020A91E4
:03000000020B638D
:0C0B6300787FE4F6D8FD75810D020A8E43
:10080000BC000BBE0029EF8DF084FFADF022E4CCDC
:10081000F875F008EF2FFFEE33FEEC33FCEE9DECA5
:10082000984005FCEE9DFE0FD5F0E9E4CEFD22EDEB
:10083000F8F5F0EE8420D21CFEADF075F008EF2F35
:10084000FFED33FD4007985006D5F0F222C398FD26
:050850000FD5F0EA22C3
:1008550075F008758200EF2FFFEE33FECD33CDCC5A
:1008650033CCC58233C5829BED9AEC99E5829840DD
:100875000CF582EE9BFEED9AFDEC99FC0FD5F0D6BA
:10088500E4CEFBE4CDFAE4CCF9A88222B800C1B9E4
:100895000059BA002DEC8BF084CFCECDFCE5F0CB22
:1008A500F97818EF2FFFEE33FEED33FDEC33FCEB5B
:1008B50033FB10D703994004EB99FB0FD8E5E4F916
:1008C500FA227818EF2FFFEE33FEED33FDEC33FC03
:1008D500C933C910D7059BE99A4007EC9BFCE99AF7
:1008E500F90FD8E0E4C9FAE4CCFB2275F010EF2F3C
:1008F500FFEE33FEED33FDCC33CCC833C810D7073C
:100905009BEC9AE899400AED9BFDEC9AFCE899F876
:0E0915000FD5F0DAE4CDFBE4CCFAE4C8F92209
:10092300EC8EF0A4CCC5F0CCCDF8EFA4CEC5F02D61
:10093300FDE43CFCE8A42EC8C5F03DFDE43CFCEF1F
:0D094300A4FFE5F028FEE43DFDE43CFC22AD
:00000001FF
